:100000000C9485010C94A4010C94A4010C94A401FB
:100010000C94A4010C94A4010C94A4010C94A401CC
:100020000C94A4010C94A4010C94A4010C94A401BC
:100030000C94A4010C94280F0C94A4010C949D0919
:100040000C94AF170C94E5170C94540A0C945F0AA7
:100050000C946A0A0C94A4010C94A4010C94A401BD
:100060000C94B1090C94550C0C94A4010C94D80C6C
:100070000C94A4010C94A4010C94A4010C942F0ED4
:100080000C940E0E0C94190E0C94240E0C94420E2B
:100090000C94F10D0C94A4010C94030E0C94A40187
:1000A0000C94A4010C94A4010C94A4010C94A4013C
:1000B0000C94A4010C94A4010C94A4010C94A4012C
:1000C0000C94A4010C94A4010C94A4017F24822418
:1000D000B5240D2552259A25BF25C225C9250B2AF1
:1000E000162A192A2E2A312A342A372A452A482A3A
:1000F0004B2A2D2B302B342B3F2B422B7724672B75
:10010000752B782B00002110422063308440A550CD
:10011000C660E770088129914AA16BB18CC1ADD14D
:10012000CEE1EFF13112100273325222B5529442F5
:10013000F772D662399318837BB35AA3BDD39CC39D
:10014000FFF3DEE36224433420040114E664C77441
:10015000A44485546AA54BB528850995EEE5CFF5ED
:10016000ACC58DD55336722611163006D776F66695
:100170009556B4465BB77AA719973887DFF7FEE73D
:100180009DD7BCC7C448E5588668A7784008611861
:1001900002282338CCC9EDD98EE9AFF9488969998D
:1001A0000AA92BB9F55AD44AB77A966A711A500A35
:1001B000333A122AFDDBDCCBBFFB9EEB799B588BDD
:1001C0003BBB1AABA66C877CE44CC55C222C033C81
:1001D000600C411CAEED8FFDECCDCDDD2AAD0BBD2D
:1001E000688D499D977EB66ED55EF44E133E322ED5
:1001F000511E700E9FFFBEEFDDDFFCCF1BBF3AAF7D
:10020000599F788F8891A981CAB1EBA10CD12DC1DA
:100210004EF16FE18010A100C230E3200450254070
:1002200046706760B9839893FBA3DAB33DC31CD3D0
:100230007FE35EF3B1029012F322D23235421452C0
:1002400077625672EAB5CBA5A89589856EF54FE51C
:100250002CD50DC5E234C324A01481046674476410
:1002600024540544DBA7FAB79987B8975FE77EF770
:100270001DC73CD7D326F2369106B0165766767660
:10028000154634564CD96DC90EF92FE9C899E9893C
:100290008AB9ABA94458654806782768C018E108B0
:1002A0008238A3287DCB5CDB3FEB1EFBF98BD89B10
:1002B000BBAB9ABB754A545A376A167AF10AD01A00
:1002C000B32A923A2EFD0FED6CDD4DCDAABD8BAD5C
:1002D000E89DC98D267C076C645C454CA23C832C50
:1002E000E01CC10C1FEF3EFF5DCF7CDF9BAFBABFB0
:1002F000D98FF89F176E367E554E745E932EB23EA0
:10030000D10EF01E00020E060C0411241FBECFEF0A
:10031000D1E2DEBFCDBF12E0A0E0B2E0E0E2F2E663
:1003200000E00BBF02C007900D92AC31B107D9F7C6
:100330001BE0ACE1B2E001C01D92AA33B107E1F7C6
:100340000E94BA2B0C940F310C9400008FB7F894D4
:10035000992708958FBF08956D3118F080E090E0DF
:1003600008950C96089568E00E94AC01089562E03B
:100370000E94AC0108950B960895282F9FB7F8941A
:10038000E82FFF27E356FD4F80818F3F81F4E091F6
:10039000160BE21771F40BC02093530804C0FF271B
:1003A000E356FD4F20832093160B20E007C025E085
:1003B00005C0809153088F3F91F7EECF892F992781
:1003C0008FBF822F9927089580E10E94BD01992750
:1003D00008958DE00E94BD0199270895882319F0A2
:1003E0008CB5806402C08CB58F7B8CBD089588234A
:1003F00019F08CB5806802C08CB58F778CBD0895DC
:100400000F931F9380E00E94EE010FB7F89411271D
:10041000229A2398219A209A8CB580618CBD80E025
:100420000E94F7018CB5877F8CBD8CB58B7F8CBD0E
:1004300081E00E94EE018DB581608DBD8CB58C7F11
:100440008CBD0FBF1F910F910895FB0121E030E09B
:1004500002C0220F331F8A95E2F784A5822B84A75E
:1004600008958FB7F89420913A0430913B0440915D
:100470003C0450913D04E0918400F0918500B09BD4
:1004800008C02F5F3F4F4F4F5F4FE0918400F091C6
:10049000850099278FBFC901772766279F014427C9
:1004A0005527622B732B842B952B0895FC01828199
:1004B0009927982F882721813327822B932B25E09A
:1004C000969587952A95E1F7817090700895AC0113
:1004D000EFB7F8942091840030918500C901841B06
:1004E000950B03968617970720F0B9016D5F7F4F34
:1004F00002C0640F751F6115710511F461E070E0B1
:1005000061507040709389006093880082E086BBE0
:1005100080916F00826080936F008E2F99278FBF2C
:100520000895CF93DF93EC010E945602882339F19E
:100530008A8129819927982F88273327822B932B0B
:1005400087749C7C81549848D1F48F814E812FB759
:10055000F894332760910402709105022FBF20E0C8
:100560009927982F88275527842B952B861797072F
:1005700009F021E081E02827822F992702C080E03E
:1005800090E0DF91CF910895FB0121E030E002C0BF
:10059000220F331F8A95E2F784A5822399270895B5
:1005A00080912E03823031F481E080932E0387E026
:1005B0000E94BD010895EF92FF920F931F937C015B
:1005C0008FB7F89499270091A6051091A7050F5EA3
:1005D0001E4F1093A7050093A605015111408FBF30
:1005E00089E00E94BD01C801B7010E948F308A5D79
:1005F0009E4F1F910F91FF90EF9008958091C40539
:100600009927382F22278091C5059927282B392B28
:1006100021153105A9F0809100029091010228175F
:10062000390771F48091C6059927982F8827209162
:10063000C7053327822B932B9093030280930202EA
:1006400008951298119810988091BA048D7F809324
:10065000BA040895E1ECF0E080818F7B8083808193
:100660008F77808310927205109262038081886078
:1006700080838081806180838081806880838FB760
:10068000F89499271092A305109230038FBF089514
:10069000AC012091D4022A3018F081E090E0089556
:1006A00080919402682F620F712D711DFB016A30D9
:1006B000710508F03A97EE0FFF1FE45AF74F518388
:1006C00040832F5F2093D40280E090E008951F9331
:1006D0001FB7F89480913A09882341F482E10E947F
:1006E000BD01882319F481E080933A09812F99276D
:1006F0008FBF1F910895382FFA01422F2D3118F026
:1007000082E090E008956683872F99278583338759
:1007100021878091310290913202892B19F085E076
:1007200090E008952FB7F894332785E08093340242
:1007300010923502F0933002E0932F0282E090E0B5
:100740009093320280933102109237021092360257
:10075000445F409333022FBF8FB7F894282F33277D
:100760008091A3058A3011F42FBF19C02FBF9FB706
:10077000F89480919303882311F020E006C081E073
:10078000809393031092940321E0892F99278FBFC0
:10079000222329F00E94670380E090E008951092E0
:1007A00032021092310281E090E008958FB7F89400
:1007B000992722B134E0232722B98FBF08954FB77C
:1007C000F8945527FC0123E0F695E7952A95E1F783
:1007D000E059FA4F8770907021E030E002C0220F9C
:1007E000331F8A95E2F78081822B80834FBF089563
:1007F0002F923F924F925F926F927F928F929F9231
:10080000AF92BF92CF92DF92EF92FF920F931F931E
:10081000CF93DF93CDB7DEB729970FB6F894DEBF3D
:100820000FBECDBF6FB76983F89420907B033090E3
:100830007C0340907D0350907E03662477248824B7
:10084000EEE4AE2E73E8B72ECC24DD24EE24FF2494
:1008500000E010E0222D332D442D552D662D772DEF
:10086000882D90E00E94D32E2A833B834C835D83A6
:100870006E837F8388879987822E932EA42EB52E30
:100880002401350100E20E94D12FA22EB32EC42EE6
:10089000D52EA301920156954795379527952A0D98
:1008A0003B1D4C1D5D1D57FF05C05F772F5F3F4F00
:1008B0004F4F5F4F20937B0330937C0340937D0326
:1008C00050937E03E9818E2F99278FBFCA01B9010A
:1008D00029960FB6F894DEBF0FBECDBFDF91CF9142
:1008E0001F910F91FF90EF90DF90CF90BF90AF904E
:1008F0009F908F907F906F905F904F903F902F9040
:1009000008950E94F803DC01CB0108957FB7F894A5
:100910006091B200209198023091990240919A0220
:1009200050919B02B99B11C08091B3009091B2008D
:10093000280F311D411D511D2F5F3F4F4F4F5F4FFE
:10094000290F311D411D511D04C0260F311D411DB0
:10095000511D872F99278FBFCA01B9010895EF92C2
:100960000F931F93AE2D99E0899FF0011124EE544F
:10097000FB4F4083518362837383048315832683F3
:100980003783A17080858E7F8A2B8260808782E08A
:100990000E94BD011F910F91EF900895AF92BF92F9
:1009A000CF92DF92EF92FF920F931F93F82E5A018E
:1009B0006B010E948604AB01BC01F1E0EF2E9601B1
:1009C00085018F2D0E94AF041F910F91FF90EF9032
:1009D000DF90CF90BF90AF900895AF92BF92CF922B
:1009E000DF92EF92FF920F931F930E9486045B01A8
:1009F0006C016091D6047091D7048091D8049091D5
:100A0000D904E0904802F090490200914A02109106
:100A10004B02E114F1040105110509F448C0EFB7D8
:100A2000F8942091700520FD36C0A6019501261B83
:100A3000370B480B590B2E153F0540075107C8F4DB
:100A4000E21AF30A040B150B8091480290914902B7
:100A5000A0914A02B0914B02821B930BA40BB50BE1
:100A60008093480290934902A0934A02B0934B02AC
:100A700015C081E090E0A0E0B0E080934802909340
:100A80004902A0934A02B0934B02A1E0EA2EF12C56
:100A9000012D112D03C02E7F209370058E2F9927D5
:100AA0008FBFB801A70184E00E94CE0405C08091E9
:100AB000DE048D7F8093DE041F910F91FF90EF90F5
:100AC000DF90CF90BF90AF9008958091A3058A30BA
:100AD00021F480913003843021F081E080932C0256
:100AE000089584E10E94BD0110922C0208952FB751
:100AF000F89433278093C600E0ECF0E080818064B6
:100B000080832FBF0895FC016115710519F481E000
:100B100090E0089580918E0390918F03892B19F0B6
:100B200085E090E008957093410860934008F09349
:100B30008F03E0938E03109261031092600381E0B3
:100B4000809362038091C00080648093C000809194
:100B5000C10080648093C100808121E030E0309347
:100B60006103209360030E94770580E090E0089580
:100B70008FB7F894992720913D022E7F20933D0254
:100B80002EE72093B9028FBF61E070E089EB92E01D
:100B90000E94830599270895AC01E3E4F4E080E026
:100BA00090E09C01858180FF05C080819181841740
:100BB000950741F0C90101963B968A30910589F766
:100BC0002FEF30E0C90108950E94CC058F3F91F0CE
:100BD00099272BE030E0829FF001839FF00D929FD8
:100BE000F00D1124ED5BFB4F858181FF03C08781F0
:100BF000908508958FEF9FEF08950E94CC058F3F59
:100C000019F481E090E00895282F33278BE090E0DD
:100C1000289FF001299FF00D389FF00D1124ED5B06
:100C2000FB4F85818860858380E090E008956E5F4A
:100C30000E94AC01009709F002960895FC012781FB
:100C40003085C901B3E0880F991FBA95E1F7820F8B
:100C5000931F860F971F6AE070E00E948F307087A5
:100C600067830895FC0161859285662329F48AE0F3
:100C7000989FB001112409C077278AE0989FC0018E
:100C800011240E94A33011861286CF010E941E06F5
:100C9000089580912302E82FFF27EE0FFF1FEF5EDC
:100CA000F74F0190F081E02D20912502222351F091
:100CB0008F5F809323028D3011F410922302215014
:100CC00020932502CF010895129811981098089545
:100CD0002091C80546EC53E08FEF8093CC038093BE
:100CE000CB0383E98093D1038091510890915208FE
:100CF000892BF1F450935208409351082093CF036D
:100D000080911A028823B9F010921A026FEF7FEFD8
:100D100083E90E947B039927282F882361F081E0D3
:100D200080931A021092520810925108222319F04F
:100D30000E946406089581E080931F020895AC012B
:100D40002091F5032C3018F081E090E00895809117
:100D50008003682F620F712D711DFB016C307105CE
:100D600008F03C97EE0FFF1FE655FA4F5183408382
:100D70002F5F2093F50380E090E00895AC0120916F
:100D8000C5032C3018F081E090E00895809171083F
:100D9000682F620F712D711DFB016C30710508F019
:100DA0003C97EE0FFF1FE75EF44F518340832F5FA8
:100DB0002093C50380E090E008950F931F93CF9395
:100DC000DF93EC01892BE9F0209138083091390844
:100DD0008FEF2F3F3807A9F080918502813019F4F9
:100DE000198218820BC000913A0810913B08C90182
:100DF0000E94E405080F191F1983088380E090E022
:100E000002C081E090E0DF91CF911F910F91089592
:100E1000FC0180818D50992708950E940807885011
:100E200099270895685F0E94AC01009709F0089621
:100E30000895FC01635F608308950F931F93982FBB
:100E40001FB7F89480912102823099F580910C02AD
:100E5000891779F580910A0220E030E08F3F11F484
:100E600021E030E0232BF1F49FEF90930C028F3FB1
:100E700019F42FEF30E00DC0282F3327F901E75781
:100E8000FC4F808180930A028F3F11F490930B02F4
:100E9000908320938B0381E0809321028CE00E9459
:100EA000BD0105C08FEF80930C021092210201E07A
:100EB00001C000E0812F99278FBF1FB7F894809160
:100EC0002102882311F40E94EE01812F99278FBF00
:100ED00090E0013009F491E081E09827892F99276B
:100EE0001F910F91089580E00E941D079927089592
:100EF0008FB7F894992722B132E0232722B98FBF08
:100F00000895AF92BF92CF92DF92EF92FF920F932C
:100F10001F93F82E5A016B010E948604AB01BC019D
:100F2000EE24960185018F2D0E94AF041F910F9131
:100F3000FF90EF90DF90CF90BF90AF9008959BE02F
:100F4000899FF0011124ED5BFB4F71836083128256
:100F50001382148285E08583168210861782089595
:100F6000882349F0682F772784EC99E00E94A3300A
:100F70006B3F710510F06FEF7FEFCB010895CF92BB
:100F8000DF92FF920F931F93CF93DF93282F062FAB
:100F9000482F55278BE090E0489FE001499FD00DF6
:100FA000589FD00D1124CD5BDB4F8D8182FF02C095
:100FB0008B7F8D838A81302F381B0A838B818F5FD3
:100FC0008B83332379F08C81830F81508C833B306A
:100FD00048F068817981822F0E949F070A8381E00F
:100FE0008B836EC08BE090E0489FF001499FF00D2D
:100FF000589FF00D1124ED5BFB4F83812481820FFC
:10100000912D911D03971CF4333008F459C0C08012
:10101000D180C3E4D4E0888199818C159D0509F0C5
:1010200049C08D81282F332720FF44C06B81FC806D
:10103000F60E21FD16C07727882799272AEF30E082
:1010400040E050E00E9464302F2D3327442755277D
:101050000E94B630DA01C9012E830E94B00798873A
:101060008F838D8182608D830E8189E0089F80014E
:1010700011246B817727882799272AEF30E040E0F9
:1010800050E00E9464302F2D3327442755270E94BB
:10109000B630C801820F911D6AE070E00E94A33053
:1010A000CB016E831B821C820E94B007BC01CE0163
:1010B0000E941E062B9684E0C13BD80709F0ABCFF7
:1010C000DF91CF911F910F91FF90DF90CF90089506
:1010D00080E090E0E8E4F4E09C01808180FF08C0BB
:1010E000C90101963B968A309105B1F72FEF30E0A8
:1010F000C9010895982FAFEF60E070E040E050E044
:10110000E8E4F4E08081282F332720FF0BC021FF83
:1011100009C023FD07C0228133812617370710F04D
:10112000A42FB9014F5F5F4F3B964A30510551F7ED
:10113000892F99276817790718F48FEF90E00895A1
:101140008A2F99270895AC01309196028FEF4F3F77
:10115000580711F020E012C0832F99270895E22F3D
:10116000FF2773E0EE0FFF1F7A95E1F7EA52FD4F7C
:10117000808191818417950719F02F5F231779F7E4
:10118000822F992708951F93CF93DF93162FC0E0E6
:10119000D0E06AE10E941706FC018081812381175B
:1011A00011F4C1E0D0E0CE01DF91CF911F910895FD
:1011B000AC01209125022D3018F081E090E00895D7
:1011C00080912402E82FFF27EE0FFF1FEF5EF74FFD
:1011D000518340838F5F809324028D3011F41092ED
:1011E00024022F5F2093250280E090E00895DF9293
:1011F000EF92FF920F931F938FB7F894282F332706
:10120000D22E9091B3008091B20047B3981711F09D
:1012100041FF02C02FBF71C0809176038823E1F1A6
:101220000E948604E0908D02F0908E0200918F0261
:1012300010919002209172083091730840917408C7
:10124000509175086E197F09800B910B6217730717
:101250008407950720F01092760371E01EC02E0DD2
:101260003F1D401F511F8091980290919902A091BB
:101270009A02B0919B02281B390B4A0B5B0B273E4D
:1012800031054105510540F4822F223010F070E005
:1012900005C070E082E002C070E086EE682F615009
:1012A0008091B60083FDFCCF8091B200681709F4ED
:1012B0006F5F209198023091990240919A0250916B
:1012C0009B02DA01C9010196A11DB11D860F911D76
:1012D000A11DB11D82179307A407B50710F4622F53
:1012E00060958091B60083FDFCCF6093B300DFBEB4
:1012F000772319F081E00E94BD011F910F91FF90AB
:10130000EF90DF900895AFB7F894BB27E1E0E0934A
:10131000760360938D0270938E0280938F02909378
:10132000900220937208309373084093740850938E
:101330007508AFBF0E94F70808951F920F920FB66D
:101340000F9211248F938091B0008093B000809110
:10135000B60081FDFCCF8F910F900FBE0F901F90B4
:1013600018951F920F920FB60F9211240F931F938F
:101370002F933F934F935F936F937F938F939F939D
:10138000AF93BF93CF93DF93EF93FF932EB5E0918D
:101390003D05F0913E05309739F080912E049091F3
:1013A0002F04E80FF91F208380912E0490912F04C1
:1013B000019690932F0480932E0480E00E94F70101
:1013C000C0912E04D0912F042091520230915302EB
:1013D000C217D30708F042C00091350910913609B1
:1013E00040913D0550913E05CE010A9628173907D8
:1013F00008F4C901DA01AC0FBD1FF801EC0FFD1FA5
:101400009C012150304015C00115110531F080813B
:101410008EBD0DB407FEFDCF04C01EBC0DB407FE8B
:10142000FDCF8EB54115510509F08C93219611968B
:101430003196C217D30740F381E00E94F7010115EE
:10144000110531F00C0F1D1FF80180818EBD01C008
:101450001EBCD0932F04C0932E0411C010923E05E1
:1014600010923D05109236091092350910925302E0
:101470001092520210922F0410922E048EB5FF91FA
:10148000EF91DF91CF91BF91AF919F918F917F911C
:101490006F915F914F913F912F911F910F910F90FD
:1014A0000FBE0F901F90189578941F920F920FB651
:1014B0000F9211240F900FBE0F901F9018957894E3
:1014C0001F920F920FB60F9211240F900FBE0F9024
:1014D0001F90189578941F920F920FB60F921124B7
:1014E0002F933F938F939F93AF93BF932FB7F8940E
:1014F000332780913A0490913B04A0913C04B09131
:101500003D040196A11DB11D80933A0490933B04C4
:10151000A0933C04B0933D042FBFBF91AF919F9126
:101520008F913F912F910F900FBE0F901F901895A4
:10153000E4E0F1E06927660FF11DE60FF11DC895A3
:10154000982F802D3196C89590250895982F8091D9
:101550003802882389F5992379F531E030933802F0
:10156000809113028093390220912D02822F817085
:1015700080939502809118029091190290933B02FA
:1015800080933A0280912E0280933C023227317080
:10159000267EE32FFF27EE0FFF1FEC5EFD4F8081BD
:1015A00091819093190280931802232B20932D028E
:1015B00087E10E94BD01089580912D0280FF02C045
:1015C0008B7F01C08D7F80932D0208950F931F9311
:1015D000082F162F809130038130D9F0813038F0F8
:1015E000823009F44AC0833009F028C159C0002371
:1015F00009F458C110923308109232081092A905CC
:1016000010924C081092750310923F0410923E0401
:1016100039C1002309F046C180913E0490913F04F6
:101620000E94980A90933F0480933E0482E0809346
:10163000300310934C08143409F000C125C186957D
:10164000869503C080912D028695817009F0F6C0C1
:1016500080912D02992311F0846001C082608093F3
:101660002D0280912D02877E886080932D0210923A
:101670002E028FEF8093130215C1002309F0DEC004
:101680006093750380913E0490913F040E94980AF4
:1016900090933F0480933E0483E08093300302C123
:1016A0008091A9058F3F09F4C9C0002309F461C0E6
:1016B000823008F4C3C0E0913208EE2309F4EBC095
:1016C0004E2F4150E42FFF27EE5CF74F8281992780
:1016D000382F2227442311F4E2E002C0E42FE15026
:1016E000FF27EE5CF74F82819927282B392B8091B9
:1016F0003E0490913F042817390709F09FC080E00D
:101700000E94A60A30917503809126042091270437
:10171000982F9F5F963008F090E0921771F0E82FB5
:10172000FF27EA5DFB4F32838F5F8093260486306C
:1017300010F0109226040E94670310923308109252
:10174000320894E0909330031092A90510924C084F
:101750001092750310923F0410923E0480913D0256
:101760008D7F80933D0280912C02882309F49AC0DA
:1017700084C0823008F44EC0E0913308FF27EE5C4D
:10178000F74F8281482F5527342F20912D02822F29
:10179000869586958695837099278130910519F0F5
:1017A0000297F9F40EC0277E206120932D02442376
:1017B00011F485E001C080E080932E023093130283
:1017C00010C080912E028F3260F4E0911802F091E7
:1017D0001902E80FF11D408380912E028F5F8093E4
:1017E0002E0280913308E82FFF27EE5CF74F6281CD
:1017F0008F5F80933308833010F01092330877277F
:1018000080913E0490913F040E94980A90933F0477
:1018100080933E0480913208E82FFF27EE5CF74F5B
:1018200012838F5F80933208833010F01092320859
:101830008091A9058F5F8093A90534C01092330869
:101840001092320814E0109330031092A905109200
:101850004C081092750310923F0410923E04809140
:101860003D028D7F80933D0281E00E94A60A809117
:101870002C02882329F0109330030E94650512C0C2
:10188000002381F081E009CF80912D02982F917083
:1018900080FDD5CED7CE809136089927382F2227C4
:1018A00042E01CCF1F910F9108951F920F920FB627
:1018B0000F9211242F933F934F935F936F937F93D6
:1018C0008F939F93AF93BF93EF93FF938091C0004B
:1018D00087FF42C06091C600E0914004F09141044E
:1018E000309719F18091380990913909E80FF91F63
:1018F0006083019690933909809338092091330BC6
:101900003091340B8217930738F1109241041092F2
:101910004004809172058330F9F08091C1008F7787
:101920008093C1001092720517C06E3719F460E001
:1019300081E010C080913D026D3721F48260809378
:101940003D020AC081FF05C08D7F80933D0280E289
:10195000682780E00E94E60AFF91EF91BF91AF9166
:101960009F918F917F916F915F914F913F912F91B7
:101970000F900FBE0F901F901895982F8D578230A3
:1019800068F480913D02816080933D0280E2892766
:101990008093A8058DE78093B90202C09093B902A5
:1019A00061E070E089EB92E00E9483059927089539
:1019B00078941F920F920FB60F921124FF920F93FB
:1019C0001F932F933F934F935F936F937F938F93C7
:1019D0009F93AF93BF93CF93DF93EF93FF932091A8
:1019E000600330916103809140089091410828176D
:1019F000390780F4E0918E03F0918F03E20FF31F1B
:101A000080812F5F3F4F30936103209360030E94DA
:101A10007705D1C010928F0310928E03109262034B
:101A20008091C1008F7B8093C100FFB6F8948091B4
:101A30003D0280FF0EC08E7F80933D028091A805FD
:101A40008093B90261E070E089EB92E00E94830527
:101A5000AFC08091A305843009F48CC0853040F478
:101A6000823021F18330B8F5813009F09CC00DC07F
:101A7000863009F48DC0863008F483C0873009F4BD
:101A80008EC0883009F08FC091C080918A030E9477
:101A9000BD0C082F83E08093A30560918A03809199
:101AA000310B9091320B0E94980A10C080915B0814
:101AB0000E94BD0C082F83E08093A30560915B0812
:101AC0008091310B9091320B0E94980A9093320BC7
:101AD0008093310B66C0E091B104FF27EE0FFF1F2A
:101AE000EE56FC4F80810E94BD0C082F1091B1046E
:101AF000C12FDD27FE01EE0FFF1FEE56FC4F608168
:101B00008091310B9091320B0E94980A9093320B86
:101B10008093310B209186032F5F20938603113031
:101B200039F580913402E0912F02F0913002E80FF4
:101B3000F11DE0818F5F80933402909133029817FA
:101B400030F482E08093930340E050E002C04E2FD7
:101B50005527DE01AA0FBB1FFD01EF56FC4F808108
:101B6000823031F02F3F21F0AE56BC4F4C9319C05C
:101B700084E012C08091310B0E94BD0C082F85E0DB
:101B80000BC08091320B0E94BD0C082F86E004C070
:101B90000E94B805082F87E08093A30502C088E063
:101BA00003C0002329F089E08093A3050E94670306
:101BB0008F2D99278FBFFF91EF91DF91CF91BF912B
:101BC000AF919F918F917F916F915F914F913F91D5
:101BD0002F911F910F91FF900F900FBE0F901F90AC
:101BE00018951F920F920FB60F9211248F93809128
:101BF000C80087FF02C08091CE008F910F900FBE6A
:101C00000F901F90189578941F920F920FB60F9215
:101C100011240F900FBE0F901F90189578941F926B
:101C20000F920FB60F9211240F900FBE0F901F90BE
:101C3000189578941F920F920FB60F9211240F905F
:101C40000FBE0F901F90189578941F920F920FB6A9
:101C50000F9211240F900FBE0F901F90189578943B
:101C60001F920F920FB60F9211248F939F93809122
:101C70009600909197009F918F910F900FBE0F90BB
:101C80001F90189578941F920F920FB60F921124FF
:101C90002F933F938F939F932FB7F894332780917F
:101CA0008103909182030196909382038093810334
:101CB0002FBF9F918F913F912F910F900FBE0F904B
:101CC0001F901895EF92FF920F931F9379018A014D
:101CD000643018F044E050E002C0462F5527BC01A4
:101CE00084EC95E00E945430E0924102F09242026E
:101CF00000934302109344020E94FE021F910F9131
:101D0000FF90EF900895CF93DF9310921F02909170
:101D1000400220E0992309F421E0222361F580911B
:101D20003E02E82FFF27EE0FFF1FE753FA4F019007
:101D3000F081E02D222351F48F5F80933E028A30A0
:101D400011F410923E02915090934002309769F046
:101D5000C6ECD3E0DF018FE20D9009928150E1F7EC
:101D6000CF010E944803882319F00E94210303C079
:101D700080E00E94BD01DF91CF910895EF92FF9224
:101D80000F931F93CF93DF93182F7B01042FE82F1E
:101D9000FF27EE0FFF1FEF5AF74F118210821092AC
:101DA0001A02A0915108B0915208109721F0809129
:101DB000850380FF0EC081E080931A0203C089E191
:101DC0000E94BD011123C9F4602FC7010E94830E38
:101DD00014C0FD01359624813327ED016D817727ED
:101DE000762F662781819927682B792BAD01868113
:101DF0000E947B03882331F3E2CFDF91CF911F91C3
:101E00000F91FF90EF9008951092320210923102DC
:101E10008FB7F8949927409135028FBF8091360291
:101E2000811143E020912F023091300280913702DE
:101E3000882369F480911A02882349F4609151083B
:101E4000709152086217730711F40E94BE0E089534
:101E50001F920F920FB60F9211242F933F934F931F
:101E60005F936F937F938F939F93AF93BF93EF9302
:101E7000FF938091B0008093B0008091B60081FD07
:101E8000FCCF8091B30099270196AA27BB27209108
:101E900098023091990240919A0250919B02280F2A
:101EA000391F4A1F5B1F2093980230939902409379
:101EB0009A0250939B0278940E94F708FF91EF9149
:101EC000BF91AF919F918F917F916F915F914F9152
:101ED0003F912F910F900FBE0F901F901895EF928A
:101EE000FF920F931F9380910F0290911002A09187
:101EF0001102B0911202B695A79597958795809398
:101F0000270390932803A0932903B0932A030E94E8
:101F1000F803E0902703F090280300912903109123
:101F20002A03A80197010E94B630AB01BC014E0DF7
:101F30005F1D601F711F4093270350932803609318
:101F4000290370932A031092310881E00E94CE0485
:101F50001F910F91FF90EF90089580E890E0A0E02E
:101F6000B0E080930F0290931002A0931102B093FF
:101F700012020E946F0F089521E020939003209396
:101F80006E052091840030918500BC01C9010E943A
:101F9000670208950F931F93CF93DF93182F0FB706
:101FA000F89480912102882311F40E940002802F6E
:101FB00099278FBF8FB7F894C82FDD272C2F8091DA
:101FC0002102882361F481E08093210210938B0326
:101FD0008CE00E94BD01CFBF80E090E021C0E12FE6
:101FE000FF27E757FC4F80818F3F89F4E0910B0278
:101FF000E11789F40CC010930A0204C0FF27E757C9
:10200000FC4F108310930B0280E090E002C085E04B
:1020100090E02FBF05C080910A028F3F79F7EBCF88
:10202000DF91CF911F910F9108958FB7F894282FCA
:102030003327922F80910C02882331F48091210262
:10204000823011F42FBF13C09FBF8FB7F894282F91
:10205000332780912102882369F482E08093210252
:1020600010920C022FBF0E940002209A289A81E051
:1020700090E008952FBF80E00E94CA0F80E090E0BA
:102080000895CF93DF93EC0180911F02882391F490
:10209000423109F055C0A2EDB3E0FB0182E10190AD
:1020A0000D928150E1F782E18093C80580E00E94A3
:1020B000BD0146C02091D4022223C9F08091940230
:1020C000E82FFF27EE0FFF1FE45AF74F40815181A1
:1020D0001182108221502093D4028F5F809394024A
:1020E0008A3011F4109294024115510519F40E949E
:1020F000640626C0DA011C96FB0182E101900D9274
:102100008150E1F7909140029A30A8F480913F020B
:10211000E82FFF27EE0FFF1FE753FA4F518340834D
:102120008F5F80933F028A3011F410923F029F5FCD
:102130009093400205C0CA010E9448030E942103F7
:10214000CE01DF91CF9108951F93982F1FB7F89478
:1021500080912002823099F580910902891779F5E2
:102160008091070220E030E08F3F11F421E030E061
:10217000232BF1F49FEF909309028F3F19F42FEF77
:1021800030E00DC0282F3327F901EB52FD4F80813D
:10219000809307028F3F11F490930802908320935D
:1021A000D10281E08093200285E00E94BD0105C03C
:1021B0008FEF809309021092200221E001C020E0FD
:1021C000812F99278FBF90E0213009F491E081E0C1
:1021D0009827892F99271F91089580E00E94A410C5
:1021E000992708950F931F93FC0100810D5011272B
:1021F00062E00E94AC01FC01208133272F70307017
:10220000C901880F991F820F931F081B0250802F4E
:1022100099271F910F9108958093A508882311F4A1
:1022200084E001C081E080932E0387E00E94BD011D
:1022300008954F925F926F927F928F929F92AF928A
:10224000BF92CF92DF92EF92FF920F931F93CF93A3
:10225000DF932C0180915102882309F083C1809182
:102260003709853009F07EC10E941510882309F4D2
:1022700079C180913708882309F074C1B20182E0E6
:102280000E94C402882311F490E003C0F20196A5D5
:102290009F708091C403981781F09093C40328988D
:1022A00085EC8EBD0DB407FEFDCF8EB590689EBD4A
:1022B0000DB407FEFDCF8EB5289AE20121968981E3
:1022C000F201218140E09927982F88273327822B1C
:1022D000932B87749C7C8154984809F441E04423F3
:1022E00001F1289886E88EBD0DB407FEFDCF8EB5AE
:1022F0001EBC0DB407FEFDCF8EB5289A99278F71AD
:10230000907020917F0340912603240F312D311DC1
:1023100043E0359527954A95E1F7281739070CF4DE
:1023200021C1289882EC8EBD0DB407FEFDCF8EB57D
:1023300089E08EBD0DB407FEFDCF8EB5289A0E94B0
:1023400031027B018C01B20184E00E94C402882327
:1023500019F4E0E0F0E006C0D2018C918550F20162
:10236000E80FF11D289881E88EBD0DB407FEFDCF62
:102370008EB51EBC0DB407FEFDCF8EB5289A8F71A9
:10238000893079F0289882EC8EBD0DB407FEFDCF20
:102390008EB586E08EBD0DB407FEFDCF8EB5289AB2
:1023A000E1C08FB7F89499272F9A2091840030913B
:1023B00085008FBF2F98289880E68EBDD2019C9112
:1023C0000DB407FEFDCF8EB59EBD792F72507730CC
:1023D00010F4672F01C067E0DE01962F4D910DB418
:1023E00007FEFDCF8EB54EBD9150C1F76150C60FAF
:1023F000D11D6F5F21962E193F092E553F4F390190
:10240000882477FC8094982C6E0C7F1C801E911E73
:10241000309719F4972F961B42C02081E18082816A
:10242000A3809927AA27BB27BA2FA92F982F8827DF
:10243000332744275527522F442733272227FF24A9
:10244000002711278701FF24EE242E293F29402B46
:10245000512BBB24CC24DD242A293B294C295D297E
:10246000822B932BA42BB52B86199709A809B909A0
:102470008383292F3A2F4B2F552722839D014427F1
:10248000552721838B2F9927AA27BB278083C2CF6B
:1024900028810DB407FEFDCF21968EB52EBD91503B
:1024A000B8F70DB407FEFDCF8EB5289A289882ECB8
:1024B0008EBD0DB407FEFDCF8EB586E08EBD0DB48A
:1024C00007FEFDCF8EB5289A3097D1F12081E180AB
:1024D0008281A3809927AA27BB27BA2FA92F982FDB
:1024E0008827332744275527522F4427332722276D
:1024F000FF24002711278701FF24EE242E293F29DE
:10250000402B512BBB24CC24DD242A293B294C29E8
:102510005D29822B932BA42BB52B860D971DA81D0F
:10252000B91D8383292F3A2F4B2F552722839D01D5
:102530004427552721838B2F9927AA27BB278083E0
:10254000B20181E00E942502F20160A671A682A676
:1025500093A686E08093370984E08093510280E05F
:1025600090E002C085E090E0DF91CF911F910F9144
:10257000FF90EF90DF90CF90BF90AF909F908F90A3
:102580007F906F905F904F900895AF92BF92CF92DF
:10259000DF92EF92FF920F931F93CF93DF9380917F
:1025A0003708882309F402C10E941510882309F412
:1025B000FDC08FB7F8949927C0918303D09184030D
:1025C0008FBF1092370828988FE88EBD0DB407FE94
:1025D000FDCF8EB51EBC0DB407FEFDCF8EB5289A7B
:1025E000982F80915102833011F0873031F485E0CB
:1025F0008093370988E080935102A92EBB24A2FE64
:1026000063C080915102863019F41092510203C0C8
:10261000882309F059C0943009F045C0289886E80D
:102620008EBD0DB407FEFDCF8EB51EBC0DB407FEEA
:10263000FDCFFEB4289A2FE1F22280912603982F35
:1026400096959695EF2DE91B8E0F809326030091AA
:10265000910210919202F80184A58B7F84A7B801A2
:1026600083E00E942502F801F6A60E9431027B0158
:102670008C01C0909102D0909202B60181E00E943C
:102680002502CE19DF092797CE01AA2797FDA0952D
:10269000BA2F8E0D9F1DA01FB11FF60180A791A715
:1026A000A2A7B3A70EC0E0919102F091920284A577
:1026B000877F84A7E0919102F091920284A58D7F9B
:1026C00084A785E080935102A3FE70C080915102DF
:1026D000843009F04EC085E0809337091092510292
:1026E00080919702833019F4109297025FC0C091D5
:1026F000170BD091180BCE010E945602882389F146
:102700008A8129819927982F88273327822B932B19
:1027100087749C7C8154984821F58F812E8199275C
:10272000982F88273327822B932B8F5F9F4FC9F0D9
:1027300090E080916E05882309F491E0992389F057
:1027400012E01093900381E080936E0580918400E5
:102750009091850069E973E00E94670210939702E7
:1027600025C01092970210922F0380E00E940C1156
:102770001DC08530D9F420917F03289886E88EBD4E
:102780000DB407FEFDCF8EB51EBC0DB407FEFDCF08
:102790008EB5289A8F71922F96959695891B280F42
:1027A00020937F0389E08093510208C090915102E9
:1027B000992309F4E6C2993009F013C2289880E2FF
:1027C0008EBD0DB407FEFDCF8EB51EBC0DB407FE49
:1027D000FDCF8EB5482F5527433008F497C3842F7B
:1027E00099278A970CF092C31EBCE0919102F09158
:1027F00092024083142F1250173010F4912F01C011
:1028000097E0BF016F5F7F4F292FFB0140E050E051
:102810000DB407FEFDCF8EB51EBC80838191482785
:10282000042E4295407F4025052E542F42954F702F
:102830000426469554274527440F440F440F40254E
:10284000215031F79150DB01A90FB11D9F5F119607
:10285000E0919102F091920281818770823009F4B7
:1028600021E0222349F020E030E08091970282307D
:1028700081F421E030E00DC08FB7F894282F332782
:1028800060E080912B08833008F461E02FBF262F91
:102890003327232B09F45CC0191B912F18C00DB4EA
:1028A00007FEFDCF8EB51EBC8C938D914827042E5C
:1028B0004295407F4025052E542F42954F700426A7
:1028C000469554274527440F440F440F4025915007
:1028D00030F70DB407FEFDCF8EB51EBC9A01282738
:1028E000022E2295207F2025032E322F22952F7035
:1028F0000226269532272327220F220F220F20257A
:102900000DB407FEFDCF8EB51EBC2827022E2295E2
:10291000207F2025032E322F22952F700226269508
:1029200032272327220F220F220F20250DB407FE66
:10293000FDCF8EB5E0919102F091920285A7289A81
:1029400015E01093370910925102232B31F015C274
:102950000DB407FEFDCF8EB5D9C2E0909102F09084
:10296000920267010894C11CD11CF701818190E09B
:10297000282F3327277030702230310509F491E079
:1029800080919702992321F1823009F025C1F70146
:102990009381E091170BF091180B8381981709F040
:1029A0001BC12230310509F017C180916F008D7F66
:1029B00080936F0010926E05BF0180E00E94250297
:1029C0001092970210922F0380E00E940C1104C114
:1029D0008823C9F4C7010E9491028823A1F01093B3
:1029E000F60382E08093F7031092F803F7018381E6
:1029F0008093F90386EF93E00E941911882319F45C
:102A000083E0809397020091840010918500C701B4
:102A10000E949102882311F0045E1C4F1093310430
:102A20000093300480918400909185009801281BC8
:102A3000390B12161306A4F480912F03882369F42E
:102A400090E080916E05882309F491E0992341F08C
:102A5000C9010E94BC0F80E801C0806880932F03E9
:102A6000F601808527819927582F44273327422B49
:102A7000532B80919C02282F3327F901EE0FFF1F63
:102A8000EE5BF74F8081918170916F0584179507F8
:102A900069F4F901EF5EF44F8081871709F467C08C
:102AA000872F8F5F80936F0580831DC000E010E04B
:102AB00080E090E0C2E4D8E0E1E1FBE0DF01682FD4
:102AC0009C01888199818417950779F420939C0251
:102AD00090916F058C91891709F449C0892F8F5FF8
:102AE00080936F058C9300E829C08081972F981BF5
:102AF000091710F4092F122F6F5FC9010196119663
:102B00002296319685309105D1F66530B9F410934F
:102B10009C02A12FBB27FD01EE0FFF1FEE5BF74FBD
:102B20005183408380916F058F5F80936F05FD0116
:102B3000EF5EF44F8083AB5CB44F1C9290916F05B5
:102B4000892F8F778F3779F40F3768F0E1E1FBE059
:102B5000292F207880818F678913208331968BE01D
:102B6000E631F807B9F780919C02282F3327F60148
:102B70009281A22FBB27FD01EB5CF44F808180FF87
:102B800007C0FD01E45DF74F8081981729F102C06D
:102B900081608083A45DB74F9C93DFB6F8948091E9
:102BA0002B088330B0F4E0915A08E80FE33008F0C6
:102BB000E350FF27EE0FFF1FEA57FD4F0081118101
:102BC000F182E0828F5F80932B0888E00E94BD0134
:102BD00078018D2D99278FBFF0929202E092910299
:102BE000C3C0892F8150833008F09CC0815082304F
:102BF000E0F4309137093130C1F420E080916E0566
:102C0000882309F421E0222381F02F9883E0809328
:102C1000900330936E0580918400909185006BE263
:102C200073E00E94670282E068C0933009F042C0FE
:102C300080913709833009F097C00E9415108823CE
:102C4000C9F128988FE88EBD0DB407FEFDCF8EB573
:102C50001EBC0DB407FEFDCF8EB5289A8091810071
:102C600080648093810080E286BB80916F008062E7
:102C700080936F009091D002289888EC8EBD0DB49F
:102C800007FEFDCF8EB590669EBD0DB407FEFDCF4D
:102C90008EB5289A289882EC8EBD0DB407FEFDCF24
:102CA0008EB586E08EBD0DB407FEFDCF8EB5289A99
:102CB00084E023C0809151028150823000F58091E0
:102CC00037098530E1F40E9415108823C1F0289857
:102CD00082EC8EBD0DB407FEFDCF8EB583E08EBDB8
:102CE0000DB407FEFDCF8EB5289A80916F008F7DC1
:102CF00080936F001092370883E08093370990919A
:102D00005102913041F4809137098330B1F52F9A07
:102D10009093370925C0923039F580913709833077
:102D200061F51EC0973001F50E9415108823E1F06F
:102D30009091D002289888EC8EBD0DB407FEFDCF8F
:102D40008EB590669EBD0DB407FEFDCF8EB5289A58
:102D500080913709853021F484E08093370904C0DD
:102D600088E08093510204C080915102883029F498
:102D70001092510286E00E94BD0180915102882389
:102D800009F5809137098530D1F48091370888237F
:102D9000B1F480919702882391F480912F038823C6
:102DA00071F490E080916E05882309F491E09923F5
:102DB00031F00E94D00280915102882319F48AE0F8
:102DC0000E94BD0180916E05823009F092C0109280
:102DD0006E05F0909003F2E0FF1609F466C023E060
:102DE000F21609F46AC081E0F81609F082C0209159
:102DF000300430913104809184009091850040919D
:102E00002F03403829F410922F030E94D00271C082
:102E10008901081B190B47FF03C010161106ECF0BF
:102E2000C0912B03D0912C03809197028823A9F4A1
:102E3000CE010E9419119927882351F48CA58E7F09
:102E40008CA7F0929702D093180BC093170B29C050
:102E50009927F82E882329F102C065E0F62E2091EB
:102E60002F03822F99278F77019759F420782260BA
:102E700020932F0380E198E00E94DB020E94BC0FA8
:102E800038C027FF0AC0101611063CF480E8809372
:102E90002F03C8010E94BC0F02C010922F038F2D78
:102EA00009C083E080932F0324C0109297021092F0
:102EB0002F0380E00E940C111CC0809137098230E2
:102EC00019F4F092370913C080915102863079F4D9
:102ED00010925102289881E88EBD0DB407FEFDCFF7
:102EE0008EB51EBC0DB407FEFDCF8EB5289A0E948C
:102EF0009B178FB7F894282F33278091CF0281300A
:102F000061F081E08093CF022FBF49CB289A85E002
:102F1000809337091092510230CF1092CF022FBF09
:102F2000DF91CF911F910F91FF90EF90DF90CF90A5
:102F3000BF90AF9008958FB7F894282F33278091D2
:102F4000CF02882329F080688093CF022FBF089595
:102F500081E08093CF022FBF0E94C512089578941C
:102F60001F920F920FB60F9211242F933F934F93FE
:102F70005F936F937F938F939F93AF93BF93EF93E1
:102F8000FF93E6E8F0E080819181208131818FB765
:102F9000F8949927309384032093830321E02093AE
:102FA00037088FBF0E949B17FF91EF91BF91AF91A0
:102FB0009F918F917F916F915F914F913F912F9151
:102FC0000F900FBE0F901F90189578941F920F923C
:102FD0000FB60F9211242F933F934F935F936F93EC
:102FE0007F938F939F93AF93BF93EF93FF938091C2
:102FF0006F008D7F80936F0078949FB7F8948091D5
:103000006E05813019F482E080936E05892F99272F
:103010008FBF0E949B17FF91EF91BF91AF919F913E
:103020008F917F916F915F914F913F912F910F9071
:103030000FBE0F901F9018952FB7F89433278091EB
:103040008B0380930C0282E0809321022FBF80913A
:103050000C02882309F07EC0209A289A80913709B3
:10306000882309F075C08EEF91E0019701960197D2
:10307000E1F716982F9886E090E001970196019766
:10308000E1F7169A289883EC8EBD0DB407FEFDCFAC
:103090008EB51EBC0DB407FEFDCF8EB5289A2898BC
:1030A00082EC8EBD0DB407FEFDCF8EB588E08EBDDF
:1030B0000DB407FEFDCF8EB5289A8EEF91E00197F3
:1030C00001960197E1F728988EEC8EBD0DB407FEAE
:1030D000FDCF8EB58DE48EBD0DB407FEFDCF8EB550
:1030E000289A289889EC8EBD0DB407FEFDCF8EB5C9
:1030F00087EC8EBD0DB407FEFDCF8EB5289A2898BB
:1031000085EC8EBD0DB407FEFDCF8EB580E88EBD7B
:103110000DB407FEFDCF8EB5289A1092C4038BE044
:103120008093D002289888EC8EBD0DB407FEFDCFA9
:103130008EB58BE68EBD0DB407FEFDCF8EB5289AF9
:103140002F9A81E08093370980E00E941D0708953F
:103150000E949B1708958FB7F894282F33278091EA
:10316000CF0281508093CF02803811F02FBF089595
:1031700081E08093CF022FBF0E94C51208951F9354
:10318000FC018FE38287809145028F5F8093450227
:1031900083832FB7F89433278091CF028F5F80937A
:1031A000CF022FBF80912E03882311F015E00DC0B0
:1031B000F093A505E093A40581E080932E0310927F
:1031C000710587E00E94BD0110E00E94AB18812FBD
:1031D00099271F910895FF920F931F93CF93DF9329
:1031E000F82E8B01EA01622F2D3118F086E090E075
:1031F00092C0FA0131968181298170E09927582F78
:1032000044273327422B532BCA0187749C7C81545B
:10321000984809F471E0772349F4CA0180739070EB
:10322000816498688983892F99278183635F688384
:103230002FB7F894332780910402909105022FBF95
:103240008887892F992789872FB7F894332780910A
:1032500006022FBF99278C831D82CE010E94BB01DD
:10326000FC01F0820E83812F99278F838FB7F8940A
:10327000282F332780912002882371F482E08093E5
:103280002002109209022FBFCE010E94BF18992779
:10329000182F882399F00FC02FBFD093D302C0936B
:1032A000D2028FB7F894C82FDD272C2F80912002EF
:1032B000882399F406C080E00E94A410812F9927EA
:1032C0002AC081E0809320021092D10285E00E9402
:1032D000BD01CFBF80E090E01EC08091D5028F3F3E
:1032E00089F4E0910802EE2369F010C01092070201
:1032F00004C0FF27EB52FD4F10821092080280E0BD
:1033000090E002C085E090E02FBF05C080910702E9
:103310008F3F79F7EBCFDF91CF911F910F91FF9006
:103320000895EF92FF920F931F93CF93DF938091B5
:103330000D029927019664E070E00E94A330682F87
:1033400080930D0200E0462F5527FA01EE0FFF1F74
:10335000EE5CFB4FC081D181209799F0E62FE69576
:10336000E695E695FF27E059F74F808199279A0166
:103370002770307002C0959587952A95E2F780FFF7
:103380000DC0CA01019664E070E00E94A330682F6E
:103390000F5F0430C1F600930D021FC060930D0251
:1033A0006430D8F4E88083EFE80EFF240F81112702
:1033B000102F00278E819927082B192BCE010E94F0
:1033C000BB01FC012E2DAE01B80180810E94EB18DB
:1033D000882319F08FE00E94BD01DF91CF911F91EA
:1033E0000F91FF90EF900895EF92FF920F931F932C
:1033F000CF93DF93E82E8B01F42E83E08E1518F423
:1034000081E090E03BC0CE2DDD27CC0FDD1FCE5CF0
:10341000DB4F88819981892B19F085E090E02EC0DF
:1034200079836883EDE0FE0EFB01F082F3EFFF0E7F
:1034300080910D02843018F480E090E01FC0CB0131
:103440000E94BB01FC018081F80167817727762FFC
:10345000662726813327622B732BE0920D022F2DD6
:10346000A8010E94EB189927282F882329F084E0CF
:1034700080930D0219821882822F9927DF91CF91B4
:103480001F910F91FF90EF9008958F929F92AF92AE
:10349000BF92CF92DF92EF92FF920F931F93CF9341
:1034A000DF9380912A02882309F0BEC0E091870350
:1034B000F091880310828091380890913908E0914A
:1034C0008703F09188038283892F992781838091D4
:1034D0008502882329F080913A0890913B0820C00A
:1034E0008091380890913908C0913A08D0913B08F2
:1034F0002FEF8F3F920781F4E0918703F0918803CB
:10350000C4838D2F99278383E0918703F0918803EB
:103510008081806880830CC00E94E4058C0F9D1F11
:10352000E0918703F09188038483892F992783830F
:1035300062E081E393E00E94AC017C0168E081E3FA
:1035400093E00E94170665E0C62ED12CC80ED91E46
:1035500040E010E0882499245BE0A52EB12C03E024
:103560008091270299270196880D991D6AE070E0E5
:103570000E94A3309C0199278A9DD0018B9DB00D9C
:103580009A9DB00D1124AD5BBB4FED018D81992744
:1035900080FF11C081FF0FC08D919C91109FF001A1
:1035A0001124EC0DFD1D8183892F992780838E8145
:1035B00082831F5F422FE9E08E16910429F0089460
:1035C000811C911C173060F24093270280912602E3
:1035D0008F5F809326028150E7018983812F8F704E
:1035E00088838FEF809337038093380381E393E0E0
:1035F0000E94BB01FC0180E7808383E0189FC0012B
:103600001124895F482F552761E373E081E00E9410
:10361000F4199927882321F481E080932A0204C0B9
:10362000843011F410922802DF91CF911F910F91F5
:10363000FF90EF90DF90CF90BF90AF909F908F90D2
:103640000895CF92DF92EF92FF920F931F93CF9343
:10365000DF936C0180918C02882309F486C08091ED
:103660002D03882309F081C066E084E592E00E9482
:10367000AC01EC01892B09F478C081E080932D0323
:10368000C9828D2D9927888384E3C81682E1D806E4
:1036900029F020E030E040E050E008C020914102F5
:1036A000309142024091430250914402FE01329611
:1036B0002383BB27A52F942F832F8283CA01AA2798
:1036C000BB278183252F3327442755272A83E28070
:1036D000FF2400271127102F0F2DFE2CEE24522F30
:1036E0004427332722279927AA27BB27DC019927BC
:1036F0008827282B392B4A2B5B2B83819927AA27D4
:10370000BB27282B392B4A2B5B2BE22AF32A042BCD
:10371000152BE114F1040105110511F410E012C09C
:1037200084E3C81682E1D80621F414E064EC75E065
:1037300003C010E060E070E0412F5527CE010696EF
:103740000E9454308FEF80935A0280935B0284E58D
:1037500092E00E94BB01FC0180E680831A5F412F4A
:1037600064E572E082E00E94F419DF91CF911F912D
:103770000F91FF90EF90DF90CF9008958FB7F8945E
:103780002091420420FD02C020E004C02E7F20933F
:10379000420421E099278FBF222339F084E392E18C
:1037A0000E94211B8BE10E94BD010895CF92DF9200
:1037B000EF92FF920F931F936C017B010E94F8031D
:1037C000DC01CB01B6010E948F30E80EF91E002704
:1037D0001127B801A70183E00E94CE041F910F9129
:1037E000FF90EF90DF90CF900895AF92BF92CF926D
:1037F000DF92EF92FF920F931F93282F33278BE0D6
:1038000090E0289FF001299FF00D389FF00D1124C2
:10381000EA5BFD4F82819381A481B5810097A10568
:10382000B10569F080819181880F991F9183808310
:103830008150944020F080E094E0918380838BE07D
:1038400090E0289F5001299FB00C389FB00C1124A4
:1038500086E492E0A80EB91EF50186819781A085C5
:10386000B18582839383A483B583C080D180EE2405
:10387000FF2469E0CC0CDD1CEE1CFF1C6A95D1F71F
:103880000E94F803DC01CB01F50100811181B80130
:10389000762F6627770F0E948F30AA27BB278C0DC3
:1038A0009D1DAE1DBF1D222733274AE0000F111FAB
:1038B000221F331F4A95D1F7081B190B2A0B3B0B0C
:1038C0000683178320873187228133814481558184
:1038D000280F391F4A1F5B1F22833383448355837C
:1038E0001F910F91FF90EF90DF90CF90BF90AF901E
:1038F0000895FF920F931F93CF93DF93F82E282FF5
:1039000033278BE090E0289FE001299FD00D389F5E
:10391000D00D1124CA5BDD4F81E090E0998388834C
:103920001A868A819B81AC81BD810097A105B10572
:10393000A1F00FB7F8941127C9010E94DF030FBF50
:103940001A821B821C821D821E821F821886198683
:103950008F2D0E94F51B0E94ED04DF91CF911F91E6
:103960000F91FF9008958453924119F480E00E94D2
:10397000791C08950F931F93CF93DF938FB7F8941B
:10398000992720913902C0913A02D0913B020091CF
:1039900095028FBF222309F070C08B85833909F00F
:1039A0006CC01FB7F8948091000290910102892B9E
:1039B00009F060C00E94D60380918302882309F435
:1039C00059C08C859D85AE85BF858093C405909335
:1039D000C505A093C605B093C7058091410290919B
:1039E0004202A0914302B0914402CD01AA27BB2715
:1039F0000196A11DB11D8093410290934202A093B4
:103A00004302B09344020097A105B10561F481E03F
:103A100090E0A0E0B0E08093410290934202A09336
:103A20004302B093440220914102309142024091FE
:103A3000430250914402A9013327222780910002BA
:103A400090910102AA27BB27280F391F4A1F5B1F2D
:103A50002093410230934202409343025093440228
:103A600084E392E10E94211B80E00E94791C8AE19C
:103A70000E94BD01812F99278FBF8FB7F894E02F47
:103A8000FF27EE0FFF1FEC5EFD4FD183C083209117
:103A90002D02002311F02B7F01C02D7F20932D02DA
:103AA0001092380299278FBFDF91CF911F910F910C
:103AB0000895CF93DF93EC010E94A308282F8091F3
:103AC00096022817D1F0382F31503093960213C048
:103AD000822F992743E0880F991F4A95E1F7DC016F
:103AE000AA52BD4FFC01E252FD4F88E001900D92B9
:103AF0008150E1F72F5F231758F380913808909198
:103B000039088C179D07A1F48FEF9FEF9093390828
:103B10008093380810923B0810923A0810923C08A3
:103B200010923D0881E080932B0280E10E94BD014C
:103B3000DF91CF910895AF92BF92CF92DF92EF9233
:103B4000FF920F931F93CF93DF935B016C01C0E053
:103B5000D0E0E2EBF4E0608561FFDDC020813181DF
:103B600042815381E480F58006811781D601C50129
:103B7000821B930BA40BB50B8E159F05A007B107F5
:103B800008F4C9C060FF03C06D7F608708C02E0DB8
:103B90003F1D401F511F2083318342835383C23016
:103BA00009F471C0C33030F4CC2359F0C13009F0AE
:103BB000B8C013C0C33009F472C0C43009F0B1C03A
:103BC00075C08091020290910302892B11F483E069
:103BD00001C084E00E94BD01A4C080912802882316
:103BE00009F49FC080912902882309F49AC080912A
:103BF0003108882301F580E10E94BD0181E10E9426
:103C0000BD0140910F02509110026091110270911C
:103C100012028091270390912803A0912903B0916B
:103C20002A03481B590B6A0B7B0B81E080933108F8
:103C30000E94CE0476C080910F0290911002A09154
:103C40001102B0911202880F991FAA1FBB1F809307
:103C50000F0290931002A0931102B09312028150B0
:103C6000904DA740B04060F080E090EDA7E0B0E05C
:103C700080930F0290931002A0931102B09312024E
:103C80000E946F0F4EC080912802882309F449C01A
:103C900080912902882309F444C080E19BCF809160
:103CA00022028F7E809322028DE094CF2091DA044D
:103CB0003091DB044091DC045091DD048091480296
:103CC00090914902A0914A02B0914B020097A10540
:103CD000B105F1F082179307A407B507C9F48091E5
:103CE0005002882361F42FB7F8943327809142045F
:103CF0008160809342042FBF8BE10E94BD0180E070
:103D000090E00E94DF0380E00E94F51B10925002B9
:103D10000E94ED0406C021963996C530D10509F000
:103D20001ACF82E00E94BD01DF91CF911F910F91C8
:103D3000FF90EF90DF90CF90BF90AF90089580916B
:103D40002E0310922E03853009F064C081E0809329
:103D5000280280912902882311F00E94F8038091A3
:103D6000220284608093220290E0809125028823C1
:103D700009F491E0992319F48DE00E94BD0180912E
:103D8000000290910102892B09F03CC08FB7F89492
:103D9000282F3327922F8091A3058A3041F08091FC
:103DA0003003843021F02FBF0E94210304C09FBF45
:103DB00083E10E94BD018091000290910102892B54
:103DC00009F5209138083091390881E08093850207
:103DD0008091C2059091C30590933908809338086B
:103DE00010923B0810923A082F5F3F4F19F48DE074
:103DF0000E94BD010E94780780910002909101020B
:103E0000892BB1F040ED57E060E070E080E00E9467
:103E100081070895863041F4109228028091220291
:103E20008B7F809322020895873011F080932E03B8
:103E30000895AF92BF92CF92DF92EF92FF920F93CD
:103E40001F93CF93DF9380918502882309F0DDC013
:103E5000CC24DD247FEFA72EB72E0FEF1FEFEE242B
:103E6000FF243EC0C22FDD2763E0CC0FDD1F6A9523
:103E7000E1F7CA52DD4F2A813B818FEF2F3F380790
:103E800061F18091C2059091C3052817390729F186
:103E9000888199810E94E405FC016C817D81AC01DF
:103EA000460F571F28813981809138089091390831
:103EB000AF812817390741F470933B0860933A08A3
:103EC000A0933D085A0109C0AA2339F4F29728F4B7
:103ED0004017510710F46E018A010894E11CF11C8F
:103EE0002E2D80919602E81608F4BCCFEFEF0F3F1D
:103EF0001E0709F479C0FFEFAF16FFEFBF0691F080
:103F000080913D08882341F080913A0890913B08C8
:103F10000A960817190730F0C8010F968A159B05F5
:103F200008F062C08091560890915708A0915808F7
:103F3000B09159080196A11DB11D80935608909328
:103F40005708A0935808B093590880913808909169
:103F500039080E94CC058F3F81F0282F33278BE052
:103F600090E0289FF001299FF00D389FF00D11245B
:103F7000ED5BFB4F8581877F8583F6018081918191
:103F80000E94FD05F601808191810E94CC058F3F42
:103F900041F0EBE08E9FF0011124ED5BFB4F1286A8
:103FA0001186F601808191819093390880933808B9
:103FB0008481958190933B0880933A088781809310
:103FC0003D08C501801B910B459770F080E890E09B
:103FD000A0E0B0E080930F0290931002A093110232
:103FE000B09312020E946F0F80912B02882359F424
:103FF000FFEFAF16FFEFBF0631F40F5F1F4F19F051
:104000008DE00E94BD0110922B02DF91CF911F9194
:104010000F91FF90EF90DF90CF90BF90AF900895F9
:10402000FF920F931F93CF93DF93F82E8B01809114
:10403000220281FD03C084E090E052C0453118F0B7
:1040400082E090E04DC0485F642FC8010E941907CC
:1040500068E0C8010E94AC01FC01809100029091CF
:1040600001028583892F99278483809193028F5F32
:104070008093930281508683CF2DDD27FF2011F49A
:1040800083E901C080E087831182FE01EE0FFF1FEC
:10409000ED5CF64F0190F081E02D309719F485E04A
:1040A00090E01EC011830083F2828EE18383CF01F2
:1040B0000E94D808882319F081E090E011C0809117
:1040C000220282FF05C084FD03C08DE00E94BD0175
:1040D000CC0FDD1FCD5CD64F1982188280E090E0B6
:1040E000DF91CF911F910F91FF90089568E00E949A
:1040F000AC01FC0187819927089568E00E94AC011A
:10410000FC0181819927089568E00E94AC01FC01BF
:1041100086819927089568E00E94AC01FC018481A2
:104120009927982F882725813327822B932B089551
:10413000BF92CF92DF92EF92FF920F931F93CF9394
:10414000DF937C01B0908402D0902504CC2428C059
:104150000D2D03701127C7010E948B20E801CC0FA1
:10416000DD1FCC0FDD1FC00FD11FC654DD4F2881CE
:1041700039818217930791F4C7010E9484209A81A4
:10418000981761F4C7010E947D209C81981731F433
:10419000C7010E9476209B81981721F0C394D39485
:1041A000CB14B1F68C2D9927DF91CF911F910F91F0
:1041B000FF90EF90DF90CF90BF90089568E00E944D
:1041C000AC01FC0184819927982F8827258133270A
:1041D000822B932B08958F929F92AF92BF92CF9292
:1041E000DF92EF92FF921F93CF93DF935C014B011D
:1041F000FC0182818823B1F4B0923409A092330982
:104200008281882351F410921E028FB7F894992767
:1042100022B131E0232722B98FBF68E0C4010E9498
:10422000AC0189C0442309F47AC0F501C080D18073
:1042300080918402843009F046C0C6010E94982013
:1042400020918402622F0E948330492F9217D8F563
:10425000992359F4809125049927019664E070E030
:104260000E94A3308093250429C080912504840FE7
:10427000912D911D9C0123703070E901CC0FDD1F41
:10428000CC0FDD1FC20FD31F019664E070E00E94C7
:10429000A330FC01EE0FFF1FEE0FFF1FE80FF91F09
:1042A000C654DD4FE654FD4F85E0019009928150E0
:1042B000E1F74F5F809184024817B8F28091840241
:1042C0008150809384021091840280912504810F93
:1042D000912D911D837090707C01EE0CFF1CEE0CF3
:1042E000FF1CE80EF91E8AEB92E0E80EF91EC601EB
:1042F0000E948B20F70191838083C6010E94842055
:10430000F7018283C6010E947D20F7018483C601E4
:104310000E947620F70183831F5F1093840268E078
:10432000C4010E94AC01F501808191810E949F0629
:10433000C5010E94BE06DF91CF911F91FF90EF90C3
:10434000DF90CF90BF90AF909F908F9008950F9384
:104350001F93CF93DF93EC01E0912302FF27EE0F31
:10436000FF1FEF5EF74F00811181662329F06CE19A
:1043700070E08CE190E032C08091220283FF40C067
:10438000BE0180E00E94C4028823D1F58F81992765
:10439000982F88272E813327822B932B0E94CC05C0
:1043A000982F8F3F71F08BE0989FF0011124ED5B07
:1043B000FB4F82858F5F8287853018F0CF010E9486
:1043C000320680E10E94BD01F80183818150838320
:1043D000882339F067E070E087E090E00E94D61B08
:1043E0003FC00E944906809122028F7E8093220264
:1043F00067E070E087E090E00E94D61B40E02CC0B0
:104400000E944906809122028F7E8093220267E0FB
:1044100070E087E090E00E94D61B8F819927982F4B
:1044200088272E813327822B932B0E94CC05982F2F
:104430008F3F89F08BE0989FF0011124ED5BFB4FDB
:1044400081858F5F818782858F5F8287853018F0B5
:10445000CF010E94320641E0BE01C8010E94EB205C
:10446000DF91CF911F910F910895282FCB0121301B
:1044700059F0213028F0223089F02330A1F411C006
:10448000642F0E94A72108956153734061F48091C5
:104490002A02882341F010922A02089510922D03D7
:1044A000089510922D030895EF92FF920F931F939A
:1044B000E82E8B01F42EE82FFF27EE0FFF1FEE5C96
:1044C000FB4F118210820E9491194F2DB8018E2D41
:1044D0000E9435221F910F91FF90EF900895FF9257
:1044E0000F931F93CF93DF9380917008882301F17E
:1044F00011E0F12E00E010E0C2E3D4E090917008EA
:10450000892F8F2169F068817981198218828F2D16
:10451000809598239093700843E0802F0E94352265
:104520000F5F1F4F22960830110511F0FF0CE6CFE8
:10453000DF91CF911F910F91FF9008950F931F93DB
:10454000CF93DF93062F10910D021430A0F4E12FCA
:10455000FF27EE0FFF1FEE5CFB4FC081D181C81714
:10456000D90749F4118210820E949119402FBE018F
:10457000812F0E943522DF91CF911F910F910895D5
:104580009F92AF92BF92CF92DF92EF92FF920F93E2
:104590001F93CF93DF93CDB7DEB722970FB6F89472
:1045A000DEBF0FBECDBF8091220284FDEFC090E040
:1045B00080912502882309F491E0992309F0E6C04F
:1045C00080918502882359F420E0809138089091E9
:1045D00039088F5F9F4F09F021E0222331F0CE018F
:1045E00001960E94DD06882341F040E157E260E039
:1045F00070E083E00E94CE04C9C0E0912302FF274F
:10460000EE0FFF1FEF5EF74FC080D180D6010D91F6
:104610001C91C8010E940807982EA0903808B090FD
:104620003908C8010E94982020E0909184028917DF
:1046300008F421E0222359F00E944906F601808106
:1046400091810E949F06C6010E94BE069CC0809177
:104650008502D601ED90FC90882389F168E0C701BE
:104660000E94AC01FC010781A0918C03B0918D03E5
:10467000F7018FE201900D928150E1F7E0908C03F9
:10468000F0908D03C7010E940807033969F4885030
:10469000082F1127602FC7010E941207402FBC016D
:1046A000C7010E9441107C01F0928D03E0928C03BF
:1046B00060E0D6018D919C910E94A72167C009817D
:1046C0001A8168E0C7010E94AC01FC010383012F3D
:1046D0001127028368E0F601808191810E94AC017C
:1046E000FC0180818F738083D6014D915C91DA014A
:1046F0001196FD0121813327322F2227FA01818172
:1047000099278062282B392B2183232F3327FD0102
:1047100021838091220288608093220280FF0FC053
:1047200068E0D6018D919C910E94AC01FC018081D2
:1047300080648083809122028E7F80932202F60122
:1047400000811181F801A6828B2D99278783C801EA
:104750000E94BB01FC0181E78083492DB80180E004
:104760000E94F4199927882331F4809122028061F4
:10477000809322020BC0823049F46CE1D6018D9106
:104780009C910E9419078DE00E94BD0122960FB6F0
:10479000F894DEBF0FBECDBFDF91CF911F910F9177
:1047A000FF90EF90DF90CF90BF90AF909F900895D3
:1047B000EF92FF920F931F93CF93DF932FB7F8944D
:1047C00033278091CF028F5F8093CF022FBF40911C
:1047D0002E03413061F5809171058F5F80937105E3
:1047E000863028F52091A4053091A50580912F03EE
:1047F0008823C1F490E080916E05882309F491E04C
:10480000992381F030932C0320932B0340932F03A3
:104810008BED91E10E94DB020E94BC0F1092A50873
:1048200083E032C085E08093A50882E02DC010921D
:104830002E030E94AB18E090A508C091A405D0916A
:10484000A5058A858F3321F580E00E94A410CE0152
:104850000E94BB01F0900D0283E08F15C8F0EF2D90
:10486000FF27EE0FFF1FEE5CFB4F008111810C173D
:104870001D0771F4118210820E9491194E2DB8010A
:104880008F2D0E94352204C080932E030E94AB1806
:10489000DF91CF911F910F91FF90EF9008952F928C
:1048A0003F924F925F926F927F928F929F92AF92C0
:1048B000BF92CF92DF92EF92FF920F931F93CF930D
:1048C000DF93CDB7DEB722970FB6F894DEBF0FBEE9
:1048D000CDBFE82FFF27EC31F10508F015C7EA59E5
:1048E000FF4FEE0FFF1F0590F491E02D099480918A
:1048F0008503882309F408C790E011E0C7C60E9429
:10490000680602C78091CE02882361F520914D0888
:1049100030914E0840914F0850915008EFB7F894ED
:10492000FF2760918D0270918E0280918F0290918D
:104930009002E0907208F090730800917408109152
:1049400075086E0D7F1D801F911FEFBF20934D08CE
:1049500030934E0840934F08509350081092CE0267
:104960000E9483090E94860443C00E9486045B0162
:104970006C018FB7F8949927109276038FBFEFEFF1
:10498000EE2EEFEFFE2EEFEF0E2FEFE71E2F60E083
:10499000E2EBF4E0808581FF1CC080819181A281DF
:1049A000B381A6019501281B390B4A0B5B0BDA0179
:1049B000C9012481358146815781281B390B4A0B57
:1049C0005B0B2E153F05400751071CF479018A0146
:1049D00061E0399634E0EF3DF307E1F6662309F430
:1049E00093C61E141F04100611062CF0C601B50153
:1049F0000E949B1D89C6E0924D08F0924E080093DC
:104A00004F081093500881E08093CE02A8019701CF
:104A1000C601B5010E94830977C60E947807129AE1
:104A2000809100029091010280936403892F99275D
:104A3000809363031092650380911C0290911D0284
:104A4000019690931D0280931C0280936703892F27
:104A50009927809366038AEA8093690380936803A9
:104A600080911E02882309F04FC662E186E798E034
:104A70000E941207009709F443C0FC01A3E6B3E0CB
:104A800082E10D9001928150E1F781E080931E0256
:104A900042E166E778E080E00E941020882309F474
:104AA00033C645C00E94D603119A809100029091AE
:104AB000010280936403892F99278093630381E027
:104AC0008093650380911C0290911D020196909342
:104AD0001D0280931C0280936703892F992780937E
:104AE00066038BEB80936A0380911E02882309F092
:104AF0000BC662E186E798E00E941207009719F45E
:104B00000E94210301C6FC01A3E6B3E082E10D90FF
:104B100001928150E1F781E080931E0242E166E755
:104B200078E080E00E941020882309F4EDC50E94FF
:104B30006406EAC52FB7F89433278091D102809399
:104B4000090282E0809320022FBF8091090288230E
:104B500009F0DAC58091D2029091D3020E94BF1869
:104B6000082F1127002309F4CFC50E94ED10602FF4
:104B70008091D2029091D3020E949E22C5C50E94CC
:104B80009F1EC2C50E94D823BFC50E9465050FBFE6
:104B9000BBC58FB7F894282F332780912B08882323
:104BA00009F442C4E0915A08FF27EE0FFF1FEA57AD
:104BB000FD4F608071802FBFF301828517810681D0
:104BC0008F3309F0F2C3C3010E94BB014C01FC0109
:104BD0007081F30161915F01812F9927582F44273C
:104BE000802F9927482B592B8FB7F894992720911C
:104BF0000402309105028FBF4217530721F04F5F27
:104C00005F4F09F078C51CE0212E312C260C371C93
:104C1000B3EF5B2E560E703709F4C5C0713730F410
:104C2000703641F0713609F0DAC394C0713709F07B
:104C3000D6C39FC2F301848525859927D82ECC241D
:104C40003327C22AD32A2685678590897189F4E3A0
:104C5000CF16F2E1DF0621F088249924540108C020
:104C60008090410290904202A0904302B090440292
:104C700080918C02882309F4B2C3892F9927AA272F
:104C8000BB27EE24F82E092F1A2F33274427552748
:104C9000522F442733272227862F9927AA27BB275D
:104CA000DC0199278827282B392B4A2B5B2B872F50
:104CB0009927AA27BB27282B392B4A2B5B2BE22AC3
:104CC000F32A042B152B81149104A104B10469F477
:104CD000E114F1040105110579F124E3C21622E182
:104CE000D20609F53AEF530E17C0E114F10401059D
:104CF0001105C9F0D801C70188199909AA09BB098A
:104D0000181619061A061B0694F444E3C41642E169
:104D1000D40649F45AEF550EA8019701652DC1013B
:104D200006960E94620EC6010E94B31C58C3E81486
:104D3000F9040A051B0561F484E3C81682E1D8066C
:104D400009F04DC3809150028F5F8093500247C39A
:104D5000C60126C080918C02882309F440C3F30168
:104D6000848525859927982F88273327822B932B95
:104D70008453924109F033C38091410290914202E1
:104D8000A0914302B09144020097A105B10509F436
:104D900026C3F10180819927982F8827822B932B96
:104DA0000E94211B1CC3F301878126819927982F1C
:104DB00088273327822B932B8F5F9F4F09F0ECC0FE
:104DC000C3010E94B7017C01F301818520859927E9
:104DD000D82ECC243327C22AD32AC6010E94CC0560
:104DE0008F3F21F0F701618177271CC00E9468087E
:104DF000182F8F3FD1F0B6010E949F07F701418124
:104E0000212F33278BE090E0289FF001299FF00DA0
:104E1000389FF00D1124ED5BFB4F4283F701618158
:104E20007727812F0E94BF07B7C081E40E947A08CC
:104E3000182F8F3FA1F0282F33278BE090E0289F79
:104E4000F001299FF00D389FF00D1124ED5BFB4F11
:104E5000808191810E94591DB601812F9BC090E0F5
:104E6000F30185A5893C08F091E0992309F494C0E9
:104E7000C3010E94F210982FF4018081803709F05D
:104E80008BC0953009F0ABC265E0C3010E941706E4
:104E90008C01FC01818122819927982F8827332753
:104EA000822B932B8F5F9F4F09F47CC0F801838185
:104EB00024819927582F44273327422B532B411500
:104EC000510521F180919602E82EFF246091380867
:104ED00070913908A0E020E030E0E6EDF2E00EC08D
:104EE000808191818617970731F0848195814817D9
:104EF000590708F4A1E02F5F3F4F38962E153F0564
:104F000014F4AA2369F3AA2309F451C010E0E8E4D9
:104F1000F4E08081992780FF04C083FD02C081FFF7
:104F20001F5F3B9624E0E63BF20799F71123A1F1BE
:104F30000E948104612F77270E948F3000E010E0EB
:104F4000E8E4F4E09081992349F0292F332723FDE9
:104F500005C021FD03C081508F3F39F00F5F1F4F07
:104F60003B960A301105C1F0EDCF202F0F3FA1F085
:104F700033278BE090E0289FF001299FF00D389FA8
:104F8000F00D1124ED5BFB4F808191810E94591D32
:104F9000B601802F0E949F07C3010E94F210853046
:104FA00009F01DC265E0C3010E9417068C01F501DE
:104FB000F084B78060E4C3010E94C308382E680102
:104FC0000894C11CD11CF801818126010894411C60
:104FD000511CF60121819927982F88273327822B8E
:104FE000932B8F5F9F4F09F4BCC08F2D9927F82E0C
:104FF000EE248B2D9927E82AF92A63E0A62EB12CFE
:10500000A00EB11EF801838154E0852E912C800EF4
:10501000911E24819927982F88273327822B932B41
:10502000892B49F5C7010E94CC058F3F09F50E94E5
:1050300068088F3F11F0B70119C08AE00E947A0812
:10504000182F8F3FA9F0282F33278BE090E0289F5F
:10505000F001299FF00D389FF00D1124ED5BFB4FFF
:10506000808191810E94591DB701812F0E949F0765
:10507000C7010E94FD05F501B080F401A080F60192
:10508000D080F201C080C7010E94E4058C01C701F5
:105090000E94A308482F8A30F1F18B2D9927782F91
:1050A00066278A2D9927682B792B8D2D9927382FE4
:1050B00022278C2D9927282B392B8091960248176F
:1050C000C9F40233110538F5E42FFF2703E0EE0F92
:1050D000FF1F0A95E1F7EA52FD4FF182E082338328
:1050E00022837583648381E0868317824F5F4093B8
:1050F000960211C0E42FFF2713E0EE0FFF1F1A9551
:10510000E1F7EA52FD4FF182E08233832283758317
:10511000648381E0868380910E02882311F5C701A4
:105120000E94A308E82F80919602E81748F4FF2711
:10513000B3E0EE0FFF1FBA95E1F7EA52FD4F378259
:1051400080913D08882311F0332049F08091380880
:10515000909139088E159F0521F4332011F00E949B
:10516000E40160E8C3010E94C308882309F437C141
:1051700019C1C3010E947620C82EC3010E947D2060
:10518000182F1F5FC3010E94B3015C01FC01118352
:10519000FCE1F51508F423C1C3010E94982020E02A
:1051A00090918402891708F421E0222309F017C1A5
:1051B00010912502812F9927D82E882309F43FC00A
:1051C000C3010E948B204C0100912302010F01506A
:1051D000DA940D3010F4E02F02C0E02FED50FF27DD
:1051E000EE0FFF1FEF5EF74F0190F081E02DE080A2
:1051F000F180C7010E948B208815990509F07FC2B4
:10520000C7010E948420182FC3010E948420181710
:1052100009F075C2C7010E947D20182FC3010E94AA
:105220007D20181709F06BC2C7010E947620182F45
:10523000C3010E947620181709F061C2D0C0809186
:105240008502882399F0C3010E940D07182F23E9D6
:10525000C21609F0C4C0682FC3010E941207412F73
:10526000BC01C3010E9441103C01B9C080E0209103
:10527000F503222309F481E0882309F0B0C090915E
:10528000C503992309F481E0882309F0A8C0992374
:1052900009F4A5C080917108E82FFF27EE0FFF1FCA
:1052A000E75EF44F0081118111821082915090933A
:1052B000C5038F5F809371088C3011F410927108D0
:1052C0000115110509F48BC0222309F488C08091CF
:1052D0008003E82FFF27EE0FFF1FE655FA4FE0800F
:1052E000F1801182108221502093F5038F5F80930B
:1052F00080038C3011F410928003E114F10409F45E
:105300006EC08FE2F70111928A95E9F728E230E04A
:10531000620E731E87E0F30111928A95E9F728ED7A
:105320003FEF620E731EF801718260828FEF8283FD
:105330008EE18383C8010E94D808882321F5CE011D
:1053400001960E94DD068823B1F4F5018281238154
:105350009927982F88273327822B932B29813A81ED
:105360002817390740F00E94AD0F6CE170E08CE126
:1053700090E00E94D61B8091D50481FD02C00E945E
:10538000E90137012CC0C7010E949F06C8010E9495
:10539000BE0625C0C3010E94B301FC018081807854
:1053A0008038E9F40E94AD0F1AC0812F9927582F39
:1053B0004427802F9927482B592B8FB7F89499278A
:1053C00020910402309105028FBF4217530719F054
:1053D0004F5F5F4F21F48FB7F89499278FBF9FB726
:1053E000F89480915A08E82FFF27EE0FFF1FEA5725
:1053F000FD4F718260828F5F80935A08833010F076
:1054000010925A0880912B08815080932B08892F85
:1054100099278FBFBECB0E9481042FB7F894332702
:105420009093A7058093A6052FBF6EC10E947307B6
:105430006BC18FB7F894992710923E0510923D05E5
:1054400010923609109235091092530210925202AE
:1054500010922F0410922E048FBF56C10E941C1868
:1054600053C10E94C02250C10E946F224DC1809141
:105470000D02E82FFF27EE0FFF1FEE5CFB4F608150
:10548000718141E00E9454223FC10E94191F3CC11A
:105490000E94451A39C18FB7F89410923A092091A9
:1054A000A30540E0283009F441E030E0293009F458
:1054B00031E0442311F4332351F01092A305E0911D
:1054C000B104FF27EE0FFF1FEF56FC4F1082992704
:1054D0008FBF442311F4332331F19FB7F8948091A7
:1054E0005B088F5F80935B0880918A03833479F433
:1054F0002091270480912604821779F0822F8F5FF4
:1055000080932704863048F01092270406C0A0E05C
:10551000442309F4A1E071E002C0A0E070E0892F0B
:1055200099278FBF06C0222311F0FF246DC0A0E091
:1055300070E08FB7F894992720912C028FBF222317
:1055400041F08FB7F89499272AE02093A3058FBFE5
:1055500042C08FB7F89499276091910340919303CB
:105560008FBF8FB7F894282F332750E090912604EF
:1055700080912704981709F451E02FBF552341F576
:10558000662331F55FB7F89482E0809391038FB77B
:10559000F894282F332740E0909126048091270427
:1055A000981709F441E02FBF442311F080E006C0B2
:1055B000E0912704FF27EA5DFB4F828180939203ED
:1055C00083E480938A031092B104852F99270EC03B
:1055D0004150423010F0FF240CC08FB7F894992747
:1055E00025E420938A0321E02093B1048FBF81E05A
:1055F000F82E772349F08FB7F8949927A0933502B6
:105600008FBF86E10E94BD018FB7F894082F112744
:105610008091A3058A3009F4B8CA0FBFFF2009F4AE
:1056200073C02FB7F89433271092320B1092310BBE
:105630001092860381E08093A3052FBF0E94B805D6
:10564000882309F461C08FB7F894992729E0209343
:10565000A3058FBF0E94670357C00E942A0354C04E
:1056600085E10E94BD0150C08091C100877F809379
:10567000C1008091C1008F7E8093C10045C00E940F
:10568000040F42C00E94BA1C3FC0110F2091850335
:10569000812F8223C1F0E92FFF27EE0FFF1FEF5A62
:1056A000F74F4081518111821082812F80952823EC
:1056B00020938503992339F463E0CA010E94830E85
:1056C000110F91E0E3CF9F5F9830F8F21DC08091F9
:1056D0001A02E82FFF27EE0FFF1FEF5AF74F6081E6
:1056E000718141E00E94BE0E0FC00E94FE020CC0FC
:1056F0000E94BE1B09C0713709F071CE4BCE01501C
:10570000DD2009F49CCD64CD22960FB6F894DEBF5F
:105710000FBECDBFDF91CF911F910F91FF90EF9002
:10572000DF90CF90BF90AF909F908F907F906F90C1
:105730005F904F903F902F900895809153088F3F36
:10574000B1F0282F3327F901E356FD4F8081809374
:1057500053088F3F11F48093160B8FEF80832F3FF8
:1057600031F0822F0E944F2481E090E0089580E084
:1057700090E00895CFEFD1E2DEBFCDBFEFB6F89451
:1057800014BE88E10FB6F894809360001092600018
:105790000FBE4CE150E06FEF70E08DE992E00E94A7
:1057A0005D308FEF809353088093160B56985E9868
:1057B00054985C9880916F008F7D80936F00209A41
:1057C000289A279A2F980E9A169A85E993E0909333
:1057D00092028093910210927F038AE580932603C0
:1057E00081E08093810080E28093B60083E0809323
:1057F000B10080918400909185004AE72091840057
:10580000309185002817390708F44150442311F0DE
:10581000C901F4CF9091B2008091B2008917E1F3F1
:1058200020918400309185009091B2008091B20067
:105830008917E1F38091840090918500821B930B7E
:10584000409615E0969587951A95E1F7909355083F
:10585000809354081092B1008091B1008093810030
:10586000809181008093B6001092B2001092850062
:10587000109284008FEF87BB87B386BB8091B60000
:105880008571E1F70A9A099A089A129A119A109A60
:1058900018B88FEF87B90C98149810929500109251
:1058A00094008091710081608093710080919100DB
:1058B000887F82608093910010928500109284000E
:1058C00080916F00816080936F0080918100887F5C
:1058D0008260809381000E949D2B8823E1F780E005
:1058E00094E09093470280934602109250021092E7
:1058F00048021092490210924A0210924B021092F2
:105900004C0210924D0210924E0210924F021092D1
:10591000420410927005ECE5F8E08BE399E0819386
:1059200091938F9628E0E037F207C9F7BAE0FB2E93
:10593000F092D4021092940212E006E060915408B2
:105940007091550888279927ACE0660F771F881F4C
:10595000991FAA95D1F720E031EE40E050E00E9477
:10596000B630215030402093C400832F9927809374
:10597000C5001093C0000093C2001092C100209394
:10598000CC008093CD001093C8000093CA00109201
:10599000C90084E490E090933F0880933E08109201
:1059A000910310929303F092A30510928603109234
:1059B0008A0310925B081092320B1092310B1092F6
:1059C0003A091092B104109233081092320884E020
:1059D000809330031092A90510924C081092750321
:1059E00010923F0410923E04109227041092260455
:1059F0001092250410928402E9E1FBE083E795E030
:105A00008193919304962BE0E133F207C9F78CE080
:105A10008093C50310927108EAEAF5E08DED95E0F8
:105A2000819391938F9625E0E23CF207C9F78CE0D1
:105A30008093F503109280038FEF8093890380E0B9
:105A40000E94CA0F20910002309101022F5F3F4F48
:105A5000C901AA27BB2780937B0390937C03A09363
:105A60007D03B0937E0386EA98E09093870280934B
:105A700086028F96909389028093880284E099E051
:105A800090938B0280938A022FEF3FEF309343086D
:105A900020934208309345082093440830934708E8
:105AA00020934608309349082093480830934B08C8
:105AB00020934A088091000207E713E0CFE3D5E086
:105AC0008295807F809345028FEF8093D50210925C
:105AD000280210922902109256081092570810922C
